{
  "_format": "hh-sol-artifact-1",
  "contractName": "XenoTokenContractV1",
  "sourceName": "contracts/XenoTokenContractV1.sol",
  "abi": [
    {
      "inputs": [],
      "stateMutability": "nonpayable",
      "type": "constructor"
    },
    {
      "anonymous": false,
      "inputs": [
        {
          "indexed": true,
          "internalType": "bytes32",
          "name": "role",
          "type": "bytes32"
        },
        {
          "indexed": true,
          "internalType": "bytes32",
          "name": "previousAdminRole",
          "type": "bytes32"
        },
        {
          "indexed": true,
          "internalType": "bytes32",
          "name": "newAdminRole",
          "type": "bytes32"
        }
      ],
      "name": "RoleAdminChanged",
      "type": "event"
    },
    {
      "anonymous": false,
      "inputs": [
        {
          "indexed": true,
          "internalType": "bytes32",
          "name": "role",
          "type": "bytes32"
        },
        {
          "indexed": true,
          "internalType": "address",
          "name": "account",
          "type": "address"
        },
        {
          "indexed": true,
          "internalType": "address",
          "name": "sender",
          "type": "address"
        }
      ],
      "name": "RoleGranted",
      "type": "event"
    },
    {
      "anonymous": false,
      "inputs": [
        {
          "indexed": true,
          "internalType": "bytes32",
          "name": "role",
          "type": "bytes32"
        },
        {
          "indexed": true,
          "internalType": "address",
          "name": "account",
          "type": "address"
        },
        {
          "indexed": true,
          "internalType": "address",
          "name": "sender",
          "type": "address"
        }
      ],
      "name": "RoleRevoked",
      "type": "event"
    },
    {
      "inputs": [],
      "name": "DEFAULT_ADMIN_ROLE",
      "outputs": [
        {
          "internalType": "bytes32",
          "name": "",
          "type": "bytes32"
        }
      ],
      "stateMutability": "view",
      "type": "function"
    },
    {
      "inputs": [],
      "name": "OPERATOR_ROLE",
      "outputs": [
        {
          "internalType": "bytes32",
          "name": "",
          "type": "bytes32"
        }
      ],
      "stateMutability": "view",
      "type": "function"
    },
    {
      "inputs": [],
      "name": "OWNER_ROLE",
      "outputs": [
        {
          "internalType": "bytes32",
          "name": "",
          "type": "bytes32"
        }
      ],
      "stateMutability": "view",
      "type": "function"
    },
    {
      "inputs": [
        {
          "internalType": "address",
          "name": "account",
          "type": "address"
        }
      ],
      "name": "addOperatorAddress",
      "outputs": [],
      "stateMutability": "nonpayable",
      "type": "function"
    },
    {
      "inputs": [
        {
          "internalType": "bytes32",
          "name": "role",
          "type": "bytes32"
        }
      ],
      "name": "getRoleAdmin",
      "outputs": [
        {
          "internalType": "bytes32",
          "name": "",
          "type": "bytes32"
        }
      ],
      "stateMutability": "view",
      "type": "function"
    },
    {
      "inputs": [],
      "name": "getTransferFlag",
      "outputs": [
        {
          "internalType": "uint256",
          "name": "",
          "type": "uint256"
        }
      ],
      "stateMutability": "view",
      "type": "function"
    },
    {
      "inputs": [
        {
          "internalType": "bytes32",
          "name": "role",
          "type": "bytes32"
        },
        {
          "internalType": "address",
          "name": "account",
          "type": "address"
        }
      ],
      "name": "grantRole",
      "outputs": [],
      "stateMutability": "nonpayable",
      "type": "function"
    },
    {
      "inputs": [
        {
          "internalType": "bytes32",
          "name": "role",
          "type": "bytes32"
        },
        {
          "internalType": "address",
          "name": "account",
          "type": "address"
        }
      ],
      "name": "hasRole",
      "outputs": [
        {
          "internalType": "bool",
          "name": "",
          "type": "bool"
        }
      ],
      "stateMutability": "view",
      "type": "function"
    },
    {
      "inputs": [
        {
          "internalType": "bytes32",
          "name": "role",
          "type": "bytes32"
        },
        {
          "internalType": "address",
          "name": "account",
          "type": "address"
        }
      ],
      "name": "renounceRole",
      "outputs": [],
      "stateMutability": "nonpayable",
      "type": "function"
    },
    {
      "inputs": [
        {
          "internalType": "address",
          "name": "account",
          "type": "address"
        }
      ],
      "name": "revokeOperatorAddress",
      "outputs": [],
      "stateMutability": "nonpayable",
      "type": "function"
    },
    {
      "inputs": [
        {
          "internalType": "bytes32",
          "name": "role",
          "type": "bytes32"
        },
        {
          "internalType": "address",
          "name": "account",
          "type": "address"
        }
      ],
      "name": "revokeRole",
      "outputs": [],
      "stateMutability": "nonpayable",
      "type": "function"
    },
    {
      "inputs": [
        {
          "internalType": "address",
          "name": "nstContractAddress",
          "type": "address"
        },
        {
          "internalType": "address",
          "name": "xdcContractAddress",
          "type": "address"
        }
      ],
      "name": "setTokenContractInfo",
      "outputs": [],
      "stateMutability": "nonpayable",
      "type": "function"
    },
    {
      "inputs": [
        {
          "internalType": "bytes4",
          "name": "interfaceId",
          "type": "bytes4"
        }
      ],
      "name": "supportsInterface",
      "outputs": [
        {
          "internalType": "bool",
          "name": "",
          "type": "bool"
        }
      ],
      "stateMutability": "view",
      "type": "function"
    },
    {
      "inputs": [
        {
          "internalType": "address payable[]",
          "name": "addressTable",
          "type": "address[]"
        },
        {
          "internalType": "uint256",
          "name": "ksta",
          "type": "uint256"
        },
        {
          "internalType": "uint256",
          "name": "nst",
          "type": "uint256"
        },
        {
          "internalType": "uint256",
          "name": "xdc",
          "type": "uint256"
        }
      ],
      "name": "transferBatch",
      "outputs": [],
      "stateMutability": "payable",
      "type": "function"
    },
    {
      "stateMutability": "payable",
      "type": "receive"
    }
  ],
  "bytecode": "0x608060405234801561001057600080fd5b5060006003556100407fb19546dff01e856fb3f010c267a7b1c60363cf8a4664e21cc89c26224620214e3361006f565b61006a7f97667070c54ef182b0f5858b034beac1b6f3089aa2d3188bb1e8929f4fa9b9293361006f565b61010e565b6000828152602081815260408083206001600160a01b038516845290915290205460ff1661010a576000828152602081815260408083206001600160a01b03851684529091529020805460ff191660011790556100c93390565b6001600160a01b0316816001600160a01b0316837f2f8788117e7eff1d82e926ec794901d17c78024a50270940304540a733656f0d60405160405180910390a45b5050565b6114d78061011d6000396000f3fe6080604052600436106100e15760003560e01c806391d148541161007f578063bff63dfa11610059578063bff63dfa1461027b578063d547741f1461028e578063e58378bb146102ae578063f5b541a6146102e257600080fd5b806391d148541461023157806393523e8214610251578063a217fddf1461026657600080fd5b8063248a9ca3116100bb578063248a9ca3146101935780632f2ff15d146101d157806336568abe146101f157806388a75ba41461021157600080fd5b806301ffc9a71461011e5780631da7b97914610153578063204abd611461017357600080fd5b36610119576101176040518060400160405280600f81526020016e3b30b63ab2903932b1b2b4bb32b21d60891b81525047610304565b005b600080fd5b34801561012a57600080fd5b5061013e6101393660046110d2565b61034d565b60405190151581526020015b60405180910390f35b34801561015f57600080fd5b5061011761016e366004611111565b610384565b34801561017f57600080fd5b5061011761018e36600461112e565b610452565b34801561019f57600080fd5b506101c36101ae366004611167565b60009081526020819052604090206001015490565b60405190815260200161014a565b3480156101dd57600080fd5b506101176101ec366004611180565b6105b1565b3480156101fd57600080fd5b5061011761020c366004611180565b6105db565b34801561021d57600080fd5b5061011761022c366004611111565b610655565b34801561023d57600080fd5b5061013e61024c366004611180565b61071d565b34801561025d57600080fd5b506003546101c3565b34801561027257600080fd5b506101c3600081565b6101176102893660046111cb565b610746565b34801561029a57600080fd5b506101176102a9366004611180565b610d88565b3480156102ba57600080fd5b506101c37fb19546dff01e856fb3f010c267a7b1c60363cf8a4664e21cc89c26224620214e81565b3480156102ee57600080fd5b506101c360008051602061148283398151915281565b610349828260405160240161031a9291906112f6565b60408051601f198184030181529190526020810180516001600160e01b0316632d839cb360e21b179052610dad565b5050565b60006001600160e01b03198216637965db0b60e01b148061037e57506301ffc9a760e01b6001600160e01b03198316145b92915050565b7fb19546dff01e856fb3f010c267a7b1c60363cf8a4664e21cc89c26224620214e6103ae81610dce565b6001600160a01b03821661043a5760405162461bcd60e51b815260206004820152604260248201527f58656e6f4e4654436f6e747261637456313a7265766f6b654f70657261746f7260448201527f41646472657373282920696e76616c6964206f70657261746f72206164647265606482015261737360f01b608482015260a4015b60405180910390fd5b61034960008051602061148283398151915283610ddb565b60008051602061148283398151915261046a81610dce565b6001600160a01b0383166104f65760405162461bcd60e51b815260206004820152604760248201527f58656e6f546f6b656e436f6e747261637456313a736574546f6b656e436f6e7460448201527f72616374496e666f282920696e76616c6964206e737420636f6e7472616374206064820152666164647265737360c81b608482015260a401610431565b6001600160a01b0382166105825760405162461bcd60e51b815260206004820152604760248201527f58656e6f546f6b656e436f6e747261637456313a736574546f6b656e436f6e7460448201527f72616374496e666f282920696e76616c69642078646320636f6e7472616374206064820152666164647265737360c81b608482015260a401610431565b50600180546001600160a01b039384166001600160a01b03199182161790915560028054929093169116179055565b6000828152602081905260409020600101546105cc81610dce565b6105d68383610e40565b505050565b6001600160a01b038116331461064b5760405162461bcd60e51b815260206004820152602f60248201527f416363657373436f6e74726f6c3a2063616e206f6e6c792072656e6f756e636560448201526e103937b632b9903337b91039b2b63360891b6064820152608401610431565b6103498282610ddb565b7fb19546dff01e856fb3f010c267a7b1c60363cf8a4664e21cc89c26224620214e61067f81610dce565b6001600160a01b0382166107055760405162461bcd60e51b815260206004820152604160248201527f58656e6f546f6b656e436f6e747261637456313a6164644f70657261746f724160448201527f646472657373282920696e76616c6964206f70657261746f72206164647265736064820152607360f81b608482015260a401610431565b61034960008051602061148283398151915283610e40565b6000918252602082815260408084206001600160a01b0393909316845291905290205460ff1690565b600060038190555b8451811015610d815760006001600160a01b031685828151811061077457610774611318565b60200260200101516001600160a01b0316036107e65760405162461bcd60e51b815260206004820152603a602482015260008051602061146283398151915260448201527f68282920696e76616c69642074617267657420616464726573730000000000006064820152608401610431565b831561094b57834710156108615760405162461bcd60e51b8152602060048201526048602482015260008051602061146283398151915260448201527f682829206b737461206578636565647320636f6e74726163742773206b7374616064820152672062616c616e636560c01b608482015260a401610431565b600085828151811061087557610875611318565b60200260200101516001600160a01b03168560405160006040518083038185875af1925050503d80600081146108c7576040519150601f19603f3d011682016040523d82523d6000602084013e6108cc565b606091505b50509050806109315760405162461bcd60e51b8152602060048201526038602482015260008051602061146283398151915260448201527f682829206b737461207472616e73666572206661696c656400000000000000006064820152608401610431565b6001600360008282546109449190611344565b9091555050505b8215610b5d57600154604051636eb1769f60e11b81523360048201523060248201526001600160a01b03909116908490829063dd62ed3e90604401602060405180830381865afa1580156109a3573d6000803e3d6000fd5b505050506040513d601f19601f820116820180604052508101906109c79190611357565b1015610a385760405162461bcd60e51b8152602060048201526046602482015260008051602061146283398151915260448201527f682829206e7374206578636565647320636f6e74726163742773206e73742062606482015265616c616e636560d01b608482015260a401610431565b6000816001600160a01b03166323b872dd33898681518110610a5c57610a5c611318565b60209081029190910101516040516001600160e01b031960e085901b1681526001600160a01b03928316600482015291166024820152604481018890526064016020604051808303816000875af1158015610abb573d6000803e3d6000fd5b505050506040513d601f19601f82011682018060405250810190610adf9190611370565b905080610b425760405162461bcd60e51b8152602060048201526037602482015260008051602061146283398151915260448201527f682829206e7374207472616e73666572206661696c65640000000000000000006064820152608401610431565b600260036000828254610b559190611344565b909155505050505b8115610d6f57600254604051636eb1769f60e11b81523360048201523060248201526001600160a01b03909116908390829063dd62ed3e90604401602060405180830381865afa158015610bb5573d6000803e3d6000fd5b505050506040513d601f19601f82011682018060405250810190610bd99190611357565b1015610c4a5760405162461bcd60e51b8152602060048201526046602482015260008051602061146283398151915260448201527f68282920786463206578636565647320636f6e74726163742773207864632062606482015265616c616e636560d01b608482015260a401610431565b6000816001600160a01b03166323b872dd33898681518110610c6e57610c6e611318565b60209081029190910101516040516001600160e01b031960e085901b1681526001600160a01b03928316600482015291166024820152604481018790526064016020604051808303816000875af1158015610ccd573d6000803e3d6000fd5b505050506040513d601f19601f82011682018060405250810190610cf19190611370565b905080610d545760405162461bcd60e51b8152602060048201526037602482015260008051602061146283398151915260448201527f68282920786463207472616e73666572206661696c65640000000000000000006064820152608401610431565b600460036000828254610d679190611344565b909155505050505b80610d7981611392565b91505061074e565b5050505050565b600082815260208190526040902060010154610da381610dce565b6105d68383610ddb565b80516a636f6e736f6c652e6c6f67602083016000808483855afa5050505050565b610dd88133610ec4565b50565b610de5828261071d565b15610349576000828152602081815260408083206001600160a01b0385168085529252808320805460ff1916905551339285917ff6391f5c32d9c69d2a47ea670b442974b53935d1edc7fd64eb21e047a839171b9190a45050565b610e4a828261071d565b610349576000828152602081815260408083206001600160a01b03851684529091529020805460ff19166001179055610e803390565b6001600160a01b0316816001600160a01b0316837f2f8788117e7eff1d82e926ec794901d17c78024a50270940304540a733656f0d60405160405180910390a45050565b610ece828261071d565b61034957610edb81610f1d565b610ee6836020610f2f565b604051602001610ef79291906113ab565b60408051601f198184030181529082905262461bcd60e51b825261043191600401611420565b606061037e6001600160a01b03831660145b60606000610f3e836002611433565b610f49906002611344565b67ffffffffffffffff811115610f6157610f616111a5565b6040519080825280601f01601f191660200182016040528015610f8b576020820181803683370190505b509050600360fc1b81600081518110610fa657610fa6611318565b60200101906001600160f81b031916908160001a905350600f60fb1b81600181518110610fd557610fd5611318565b60200101906001600160f81b031916908160001a9053506000610ff9846002611433565b611004906001611344565b90505b600181111561107c576f181899199a1a9b1b9c1cb0b131b232b360811b85600f166010811061103857611038611318565b1a60f81b82828151811061104e5761104e611318565b60200101906001600160f81b031916908160001a90535060049490941c936110758161144a565b9050611007565b5083156110cb5760405162461bcd60e51b815260206004820181905260248201527f537472696e67733a20686578206c656e67746820696e73756666696369656e746044820152606401610431565b9392505050565b6000602082840312156110e457600080fd5b81356001600160e01b0319811681146110cb57600080fd5b6001600160a01b0381168114610dd857600080fd5b60006020828403121561112357600080fd5b81356110cb816110fc565b6000806040838503121561114157600080fd5b823561114c816110fc565b9150602083013561115c816110fc565b809150509250929050565b60006020828403121561117957600080fd5b5035919050565b6000806040838503121561119357600080fd5b82359150602083013561115c816110fc565b634e487b7160e01b600052604160045260246000fd5b80356111c6816110fc565b919050565b600080600080608085870312156111e157600080fd5b843567ffffffffffffffff808211156111f957600080fd5b818701915087601f83011261120d57600080fd5b8135602082821115611221576112216111a5565b8160051b604051601f19603f83011681018181108682111715611246576112466111a5565b60405292835281830193508481018201928b84111561126457600080fd5b948201945b838610156112895761127a866111bb565b85529482019493820193611269565b9b918a01359a505060408901359860600135975095505050505050565b60005b838110156112c15781810151838201526020016112a9565b50506000910152565b600081518084526112e28160208601602086016112a6565b601f01601f19169290920160200192915050565b60408152600061130960408301856112ca565b90508260208301529392505050565b634e487b7160e01b600052603260045260246000fd5b634e487b7160e01b600052601160045260246000fd5b8082018082111561037e5761037e61132e565b60006020828403121561136957600080fd5b5051919050565b60006020828403121561138257600080fd5b815180151581146110cb57600080fd5b6000600182016113a4576113a461132e565b5060010190565b7f416363657373436f6e74726f6c3a206163636f756e74200000000000000000008152600083516113e38160178501602088016112a6565b7001034b99036b4b9b9b4b733903937b6329607d1b60179184019182015283516114148160288401602088016112a6565b01602801949350505050565b6020815260006110cb60208301846112ca565b808202811582820484141761037e5761037e61132e565b6000816114595761145961132e565b50600019019056fe58656e6f546f6b656e436f6e747261637456313a7472616e736665724261746397667070c54ef182b0f5858b034beac1b6f3089aa2d3188bb1e8929f4fa9b929a26469706673582212204fa192b135390d0b85f4ad329d4af3a58b03f02593d14b279b5aace72cbcc8e864736f6c63430008110033",
  "linkReferences": {},
  "deployedLinkReferences": {}
}