{
  "_format": "hh-sol-artifact-1",
  "contractName": "XenoNFTContractV1",
  "sourceName": "contracts/XenoNFTContractV1.sol",
  "abi": [
    {
      "inputs": [
        {
          "internalType": "uint256",
          "name": "tokenIdMin",
          "type": "uint256"
        },
        {
          "internalType": "uint256",
          "name": "tokenIdMax",
          "type": "uint256"
        },
        {
          "internalType": "string",
          "name": "baseURI",
          "type": "string"
        }
      ],
      "stateMutability": "nonpayable",
      "type": "constructor"
    },
    {
      "anonymous": false,
      "inputs": [
        {
          "indexed": true,
          "internalType": "address",
          "name": "account",
          "type": "address"
        },
        {
          "indexed": true,
          "internalType": "address",
          "name": "operator",
          "type": "address"
        },
        {
          "indexed": false,
          "internalType": "bool",
          "name": "approved",
          "type": "bool"
        }
      ],
      "name": "ApprovalForAll",
      "type": "event"
    },
    {
      "anonymous": false,
      "inputs": [
        {
          "indexed": false,
          "internalType": "address",
          "name": "sender",
          "type": "address"
        },
        {
          "indexed": false,
          "internalType": "address",
          "name": "operator",
          "type": "address"
        },
        {
          "indexed": false,
          "internalType": "uint256",
          "name": "tokenId",
          "type": "uint256"
        },
        {
          "indexed": false,
          "internalType": "bool",
          "name": "flag",
          "type": "bool"
        }
      ],
      "name": "ApprovalSingle",
      "type": "event"
    },
    {
      "anonymous": false,
      "inputs": [
        {
          "indexed": false,
          "internalType": "string",
          "name": "baseURI",
          "type": "string"
        }
      ],
      "name": "MetadataBaseURIChanged",
      "type": "event"
    },
    {
      "anonymous": false,
      "inputs": [
        {
          "indexed": false,
          "internalType": "address",
          "name": "account",
          "type": "address"
        }
      ],
      "name": "Paused",
      "type": "event"
    },
    {
      "anonymous": false,
      "inputs": [
        {
          "indexed": true,
          "internalType": "bytes32",
          "name": "role",
          "type": "bytes32"
        },
        {
          "indexed": true,
          "internalType": "bytes32",
          "name": "previousAdminRole",
          "type": "bytes32"
        },
        {
          "indexed": true,
          "internalType": "bytes32",
          "name": "newAdminRole",
          "type": "bytes32"
        }
      ],
      "name": "RoleAdminChanged",
      "type": "event"
    },
    {
      "anonymous": false,
      "inputs": [
        {
          "indexed": true,
          "internalType": "bytes32",
          "name": "role",
          "type": "bytes32"
        },
        {
          "indexed": true,
          "internalType": "address",
          "name": "account",
          "type": "address"
        },
        {
          "indexed": true,
          "internalType": "address",
          "name": "sender",
          "type": "address"
        }
      ],
      "name": "RoleGranted",
      "type": "event"
    },
    {
      "anonymous": false,
      "inputs": [
        {
          "indexed": true,
          "internalType": "bytes32",
          "name": "role",
          "type": "bytes32"
        },
        {
          "indexed": true,
          "internalType": "address",
          "name": "account",
          "type": "address"
        },
        {
          "indexed": true,
          "internalType": "address",
          "name": "sender",
          "type": "address"
        }
      ],
      "name": "RoleRevoked",
      "type": "event"
    },
    {
      "anonymous": false,
      "inputs": [
        {
          "indexed": true,
          "internalType": "address",
          "name": "operator",
          "type": "address"
        },
        {
          "indexed": true,
          "internalType": "address",
          "name": "from",
          "type": "address"
        },
        {
          "indexed": true,
          "internalType": "address",
          "name": "to",
          "type": "address"
        },
        {
          "indexed": false,
          "internalType": "uint256[]",
          "name": "ids",
          "type": "uint256[]"
        },
        {
          "indexed": false,
          "internalType": "uint256[]",
          "name": "values",
          "type": "uint256[]"
        }
      ],
      "name": "TransferBatch",
      "type": "event"
    },
    {
      "anonymous": false,
      "inputs": [
        {
          "indexed": true,
          "internalType": "address",
          "name": "operator",
          "type": "address"
        },
        {
          "indexed": true,
          "internalType": "address",
          "name": "from",
          "type": "address"
        },
        {
          "indexed": true,
          "internalType": "address",
          "name": "to",
          "type": "address"
        },
        {
          "indexed": false,
          "internalType": "uint256",
          "name": "id",
          "type": "uint256"
        },
        {
          "indexed": false,
          "internalType": "uint256",
          "name": "value",
          "type": "uint256"
        }
      ],
      "name": "TransferSingle",
      "type": "event"
    },
    {
      "anonymous": false,
      "inputs": [
        {
          "indexed": false,
          "internalType": "string",
          "name": "value",
          "type": "string"
        },
        {
          "indexed": true,
          "internalType": "uint256",
          "name": "id",
          "type": "uint256"
        }
      ],
      "name": "URI",
      "type": "event"
    },
    {
      "anonymous": false,
      "inputs": [
        {
          "indexed": false,
          "internalType": "address",
          "name": "account",
          "type": "address"
        }
      ],
      "name": "Unpaused",
      "type": "event"
    },
    {
      "inputs": [],
      "name": "DEFAULT_ADMIN_ROLE",
      "outputs": [
        {
          "internalType": "bytes32",
          "name": "",
          "type": "bytes32"
        }
      ],
      "stateMutability": "view",
      "type": "function"
    },
    {
      "inputs": [],
      "name": "MAX_PER_TOKENID",
      "outputs": [
        {
          "internalType": "uint256",
          "name": "",
          "type": "uint256"
        }
      ],
      "stateMutability": "view",
      "type": "function"
    },
    {
      "inputs": [],
      "name": "METADATA_TOKENID_PLACEHOLDER",
      "outputs": [
        {
          "internalType": "string",
          "name": "",
          "type": "string"
        }
      ],
      "stateMutability": "view",
      "type": "function"
    },
    {
      "inputs": [],
      "name": "MINTER_ROLE",
      "outputs": [
        {
          "internalType": "bytes32",
          "name": "",
          "type": "bytes32"
        }
      ],
      "stateMutability": "view",
      "type": "function"
    },
    {
      "inputs": [],
      "name": "OPERATOR_ROLE",
      "outputs": [
        {
          "internalType": "bytes32",
          "name": "",
          "type": "bytes32"
        }
      ],
      "stateMutability": "view",
      "type": "function"
    },
    {
      "inputs": [],
      "name": "OWNER_ROLE",
      "outputs": [
        {
          "internalType": "bytes32",
          "name": "",
          "type": "bytes32"
        }
      ],
      "stateMutability": "view",
      "type": "function"
    },
    {
      "inputs": [
        {
          "internalType": "address",
          "name": "account",
          "type": "address"
        },
        {
          "internalType": "uint256",
          "name": "id",
          "type": "uint256"
        }
      ],
      "name": "balanceOf",
      "outputs": [
        {
          "internalType": "uint256",
          "name": "",
          "type": "uint256"
        }
      ],
      "stateMutability": "view",
      "type": "function"
    },
    {
      "inputs": [
        {
          "internalType": "address[]",
          "name": "accounts",
          "type": "address[]"
        },
        {
          "internalType": "uint256[]",
          "name": "ids",
          "type": "uint256[]"
        }
      ],
      "name": "balanceOfBatch",
      "outputs": [
        {
          "internalType": "uint256[]",
          "name": "",
          "type": "uint256[]"
        }
      ],
      "stateMutability": "view",
      "type": "function"
    },
    {
      "inputs": [
        {
          "internalType": "address",
          "name": "account",
          "type": "address"
        },
        {
          "internalType": "uint256",
          "name": "tokenId",
          "type": "uint256"
        }
      ],
      "name": "burnToken",
      "outputs": [],
      "stateMutability": "nonpayable",
      "type": "function"
    },
    {
      "inputs": [
        {
          "internalType": "address",
          "name": "account",
          "type": "address"
        },
        {
          "internalType": "uint256[]",
          "name": "tokenIDTable",
          "type": "uint256[]"
        }
      ],
      "name": "burnTokensBatch",
      "outputs": [],
      "stateMutability": "nonpayable",
      "type": "function"
    },
    {
      "inputs": [],
      "name": "getBatchMintingCount",
      "outputs": [
        {
          "internalType": "uint256",
          "name": "",
          "type": "uint256"
        }
      ],
      "stateMutability": "view",
      "type": "function"
    },
    {
      "inputs": [],
      "name": "getBurnTokenNum",
      "outputs": [
        {
          "internalType": "uint256",
          "name": "",
          "type": "uint256"
        }
      ],
      "stateMutability": "view",
      "type": "function"
    },
    {
      "inputs": [],
      "name": "getMetadataBaseURI",
      "outputs": [
        {
          "internalType": "string",
          "name": "",
          "type": "string"
        }
      ],
      "stateMutability": "view",
      "type": "function"
    },
    {
      "inputs": [
        {
          "internalType": "address",
          "name": "account",
          "type": "address"
        }
      ],
      "name": "getMetadataList",
      "outputs": [
        {
          "internalType": "string[]",
          "name": "",
          "type": "string[]"
        }
      ],
      "stateMutability": "view",
      "type": "function"
    },
    {
      "inputs": [
        {
          "internalType": "uint256",
          "name": "tokenId",
          "type": "uint256"
        }
      ],
      "name": "getMetadataURI",
      "outputs": [
        {
          "internalType": "string",
          "name": "",
          "type": "string"
        }
      ],
      "stateMutability": "view",
      "type": "function"
    },
    {
      "inputs": [
        {
          "internalType": "uint256[]",
          "name": "tokenIDTable",
          "type": "uint256[]"
        }
      ],
      "name": "getMetadataURIList",
      "outputs": [
        {
          "internalType": "string[]",
          "name": "",
          "type": "string[]"
        }
      ],
      "stateMutability": "view",
      "type": "function"
    },
    {
      "inputs": [
        {
          "internalType": "bytes32",
          "name": "role",
          "type": "bytes32"
        }
      ],
      "name": "getRoleAdmin",
      "outputs": [
        {
          "internalType": "bytes32",
          "name": "",
          "type": "bytes32"
        }
      ],
      "stateMutability": "view",
      "type": "function"
    },
    {
      "inputs": [],
      "name": "getSingleMintingCount",
      "outputs": [
        {
          "internalType": "uint256",
          "name": "",
          "type": "uint256"
        }
      ],
      "stateMutability": "view",
      "type": "function"
    },
    {
      "inputs": [
        {
          "internalType": "address",
          "name": "account",
          "type": "address"
        },
        {
          "internalType": "uint256",
          "name": "index",
          "type": "uint256"
        }
      ],
      "name": "getToken",
      "outputs": [
        {
          "internalType": "uint256",
          "name": "",
          "type": "uint256"
        }
      ],
      "stateMutability": "view",
      "type": "function"
    },
    {
      "inputs": [],
      "name": "getTokenIDMax",
      "outputs": [
        {
          "internalType": "uint256",
          "name": "",
          "type": "uint256"
        }
      ],
      "stateMutability": "view",
      "type": "function"
    },
    {
      "inputs": [
        {
          "internalType": "address",
          "name": "account",
          "type": "address"
        }
      ],
      "name": "getTokenList",
      "outputs": [
        {
          "internalType": "uint256[]",
          "name": "",
          "type": "uint256[]"
        }
      ],
      "stateMutability": "view",
      "type": "function"
    },
    {
      "inputs": [
        {
          "internalType": "address",
          "name": "account",
          "type": "address"
        }
      ],
      "name": "getTokenNum",
      "outputs": [
        {
          "internalType": "uint256",
          "name": "",
          "type": "uint256"
        }
      ],
      "stateMutability": "view",
      "type": "function"
    },
    {
      "inputs": [],
      "name": "getTotalTokenNum",
      "outputs": [
        {
          "internalType": "uint256",
          "name": "",
          "type": "uint256"
        }
      ],
      "stateMutability": "view",
      "type": "function"
    },
    {
      "inputs": [
        {
          "internalType": "bytes32",
          "name": "role",
          "type": "bytes32"
        },
        {
          "internalType": "address",
          "name": "account",
          "type": "address"
        }
      ],
      "name": "grantRole",
      "outputs": [],
      "stateMutability": "nonpayable",
      "type": "function"
    },
    {
      "inputs": [
        {
          "internalType": "bytes32",
          "name": "role",
          "type": "bytes32"
        },
        {
          "internalType": "address",
          "name": "account",
          "type": "address"
        }
      ],
      "name": "hasRole",
      "outputs": [
        {
          "internalType": "bool",
          "name": "",
          "type": "bool"
        }
      ],
      "stateMutability": "view",
      "type": "function"
    },
    {
      "inputs": [
        {
          "internalType": "address",
          "name": "owner",
          "type": "address"
        },
        {
          "internalType": "address",
          "name": "operator",
          "type": "address"
        },
        {
          "internalType": "uint256",
          "name": "tokenId",
          "type": "uint256"
        }
      ],
      "name": "isApproved",
      "outputs": [
        {
          "internalType": "bool",
          "name": "",
          "type": "bool"
        }
      ],
      "stateMutability": "view",
      "type": "function"
    },
    {
      "inputs": [
        {
          "internalType": "address",
          "name": "owner",
          "type": "address"
        },
        {
          "internalType": "address",
          "name": "operator",
          "type": "address"
        },
        {
          "internalType": "uint256[]",
          "name": "tokenIDTable",
          "type": "uint256[]"
        }
      ],
      "name": "isApprovedBatch",
      "outputs": [
        {
          "internalType": "bool",
          "name": "",
          "type": "bool"
        }
      ],
      "stateMutability": "view",
      "type": "function"
    },
    {
      "inputs": [
        {
          "internalType": "address",
          "name": "account",
          "type": "address"
        },
        {
          "internalType": "address",
          "name": "operator",
          "type": "address"
        }
      ],
      "name": "isApprovedForAll",
      "outputs": [
        {
          "internalType": "bool",
          "name": "",
          "type": "bool"
        }
      ],
      "stateMutability": "view",
      "type": "function"
    },
    {
      "inputs": [
        {
          "internalType": "address",
          "name": "account",
          "type": "address"
        },
        {
          "internalType": "uint256",
          "name": "tokenId",
          "type": "uint256"
        }
      ],
      "name": "isTokenOwner",
      "outputs": [
        {
          "internalType": "bool",
          "name": "",
          "type": "bool"
        }
      ],
      "stateMutability": "view",
      "type": "function"
    },
    {
      "inputs": [
        {
          "internalType": "address[]",
          "name": "accountTable",
          "type": "address[]"
        },
        {
          "internalType": "uint256[]",
          "name": "tokenIDTable",
          "type": "uint256[]"
        }
      ],
      "name": "isTokenOwnerBatch",
      "outputs": [
        {
          "internalType": "bool[]",
          "name": "",
          "type": "bool[]"
        }
      ],
      "stateMutability": "view",
      "type": "function"
    },
    {
      "inputs": [
        {
          "internalType": "address",
          "name": "to",
          "type": "address"
        },
        {
          "internalType": "uint256[]",
          "name": "tokenIDTable",
          "type": "uint256[]"
        },
        {
          "internalType": "bytes",
          "name": "data",
          "type": "bytes"
        }
      ],
      "name": "mintBatch",
      "outputs": [],
      "stateMutability": "nonpayable",
      "type": "function"
    },
    {
      "inputs": [
        {
          "internalType": "address[]",
          "name": "accountTable",
          "type": "address[]"
        },
        {
          "internalType": "uint256[]",
          "name": "tokenIDTable",
          "type": "uint256[]"
        },
        {
          "internalType": "bytes",
          "name": "data",
          "type": "bytes"
        }
      ],
      "name": "mintGroup",
      "outputs": [],
      "stateMutability": "nonpayable",
      "type": "function"
    },
    {
      "inputs": [
        {
          "internalType": "address",
          "name": "to",
          "type": "address"
        },
        {
          "internalType": "uint256",
          "name": "tokenId",
          "type": "uint256"
        },
        {
          "internalType": "bytes",
          "name": "data",
          "type": "bytes"
        }
      ],
      "name": "mintSingle",
      "outputs": [],
      "stateMutability": "nonpayable",
      "type": "function"
    },
    {
      "inputs": [],
      "name": "pauseContract",
      "outputs": [],
      "stateMutability": "nonpayable",
      "type": "function"
    },
    {
      "inputs": [],
      "name": "paused",
      "outputs": [
        {
          "internalType": "bool",
          "name": "",
          "type": "bool"
        }
      ],
      "stateMutability": "view",
      "type": "function"
    },
    {
      "inputs": [
        {
          "internalType": "address",
          "name": "account",
          "type": "address"
        },
        {
          "internalType": "uint256",
          "name": "offset",
          "type": "uint256"
        },
        {
          "internalType": "uint256",
          "name": "num",
          "type": "uint256"
        }
      ],
      "name": "queryTokenList",
      "outputs": [
        {
          "internalType": "uint256[]",
          "name": "",
          "type": "uint256[]"
        }
      ],
      "stateMutability": "view",
      "type": "function"
    },
    {
      "inputs": [
        {
          "internalType": "bytes32",
          "name": "role",
          "type": "bytes32"
        },
        {
          "internalType": "address",
          "name": "account",
          "type": "address"
        }
      ],
      "name": "renounceRole",
      "outputs": [],
      "stateMutability": "nonpayable",
      "type": "function"
    },
    {
      "inputs": [],
      "name": "resumeContract",
      "outputs": [],
      "stateMutability": "nonpayable",
      "type": "function"
    },
    {
      "inputs": [
        {
          "internalType": "address",
          "name": "account",
          "type": "address"
        }
      ],
      "name": "revokeMinterAddress",
      "outputs": [],
      "stateMutability": "nonpayable",
      "type": "function"
    },
    {
      "inputs": [
        {
          "internalType": "address",
          "name": "account",
          "type": "address"
        }
      ],
      "name": "revokeOperatorAddress",
      "outputs": [],
      "stateMutability": "nonpayable",
      "type": "function"
    },
    {
      "inputs": [
        {
          "internalType": "bytes32",
          "name": "role",
          "type": "bytes32"
        },
        {
          "internalType": "address",
          "name": "account",
          "type": "address"
        }
      ],
      "name": "revokeRole",
      "outputs": [],
      "stateMutability": "nonpayable",
      "type": "function"
    },
    {
      "inputs": [
        {
          "internalType": "address",
          "name": "from",
          "type": "address"
        },
        {
          "internalType": "address",
          "name": "to",
          "type": "address"
        },
        {
          "internalType": "uint256[]",
          "name": "tokenIDTable",
          "type": "uint256[]"
        },
        {
          "internalType": "uint256[]",
          "name": "amounts",
          "type": "uint256[]"
        },
        {
          "internalType": "bytes",
          "name": "data",
          "type": "bytes"
        }
      ],
      "name": "safeBatchTransferFrom",
      "outputs": [],
      "stateMutability": "nonpayable",
      "type": "function"
    },
    {
      "inputs": [
        {
          "internalType": "address",
          "name": "from",
          "type": "address"
        },
        {
          "internalType": "address",
          "name": "to",
          "type": "address"
        },
        {
          "internalType": "uint256",
          "name": "tokenId",
          "type": "uint256"
        },
        {
          "internalType": "uint256",
          "name": "amount",
          "type": "uint256"
        },
        {
          "internalType": "bytes",
          "name": "data",
          "type": "bytes"
        }
      ],
      "name": "safeTransferFrom",
      "outputs": [],
      "stateMutability": "nonpayable",
      "type": "function"
    },
    {
      "inputs": [
        {
          "internalType": "address",
          "name": "operator",
          "type": "address"
        },
        {
          "internalType": "uint256",
          "name": "tokenId",
          "type": "uint256"
        },
        {
          "internalType": "bool",
          "name": "flag",
          "type": "bool"
        }
      ],
      "name": "setApproval",
      "outputs": [],
      "stateMutability": "nonpayable",
      "type": "function"
    },
    {
      "inputs": [
        {
          "internalType": "address",
          "name": "operator",
          "type": "address"
        },
        {
          "internalType": "uint256[]",
          "name": "tokenIDTable",
          "type": "uint256[]"
        },
        {
          "internalType": "bool",
          "name": "flag",
          "type": "bool"
        }
      ],
      "name": "setApprovalBatch",
      "outputs": [],
      "stateMutability": "nonpayable",
      "type": "function"
    },
    {
      "inputs": [
        {
          "internalType": "address",
          "name": "operator",
          "type": "address"
        },
        {
          "internalType": "bool",
          "name": "approved",
          "type": "bool"
        }
      ],
      "name": "setApprovalForAll",
      "outputs": [],
      "stateMutability": "nonpayable",
      "type": "function"
    },
    {
      "inputs": [
        {
          "internalType": "string",
          "name": "baseURI",
          "type": "string"
        }
      ],
      "name": "setMetadataBaseURI",
      "outputs": [],
      "stateMutability": "nonpayable",
      "type": "function"
    },
    {
      "inputs": [
        {
          "internalType": "address",
          "name": "account",
          "type": "address"
        }
      ],
      "name": "setMinterAddress",
      "outputs": [],
      "stateMutability": "nonpayable",
      "type": "function"
    },
    {
      "inputs": [
        {
          "internalType": "address",
          "name": "account",
          "type": "address"
        }
      ],
      "name": "setOperatorAddress",
      "outputs": [],
      "stateMutability": "nonpayable",
      "type": "function"
    },
    {
      "inputs": [
        {
          "internalType": "uint256",
          "name": "value",
          "type": "uint256"
        }
      ],
      "name": "setTokenIDMax",
      "outputs": [],
      "stateMutability": "nonpayable",
      "type": "function"
    },
    {
      "inputs": [
        {
          "internalType": "bytes4",
          "name": "interfaceId",
          "type": "bytes4"
        }
      ],
      "name": "supportsInterface",
      "outputs": [
        {
          "internalType": "bool",
          "name": "",
          "type": "bool"
        }
      ],
      "stateMutability": "view",
      "type": "function"
    },
    {
      "inputs": [
        {
          "internalType": "uint256",
          "name": "id",
          "type": "uint256"
        }
      ],
      "name": "uri",
      "outputs": [
        {
          "internalType": "string",
          "name": "",
          "type": "string"
        }
      ],
      "stateMutability": "view",
      "type": "function"
    }
  ],
  "bytecode": "0x60806040523480156200001157600080fd5b5060405162005326380380620053268339810160408190526200003491620001ff565b8080620000418162000102565b5050600a805460ff19169055600c6200005b828262000377565b50600d839055600e8290556000600f8190556010819055601155620000a17fb19546dff01e856fb3f010c267a7b1c60363cf8a4664e21cc89c26224620214e3362000114565b620000cd7f97667070c54ef182b0f5858b034beac1b6f3089aa2d3188bb1e8929f4fa9b9293362000114565b620000f97f9f2df0fed2c77648de5860a4cc508cd0818c85b8b8a1ab4ceeef8d981c8956a63362000114565b50505062000443565b600262000110828262000377565b5050565b6200012082826200019e565b620001105760008281526009602090815260408083206001600160a01b03851684529091529020805460ff191660011790556200015a3390565b6001600160a01b0316816001600160a01b0316837f2f8788117e7eff1d82e926ec794901d17c78024a50270940304540a733656f0d60405160405180910390a45050565b6000620001b78383620001be60201b620020ed1760201c565b9392505050565b60009182526009602090815260408084206001600160a01b0393909316845291905290205460ff1690565b634e487b7160e01b600052604160045260246000fd5b6000806000606084860312156200021557600080fd5b835160208086015160408701519295509350906001600160401b03808211156200023e57600080fd5b818701915087601f8301126200025357600080fd5b815181811115620002685762000268620001e9565b604051601f8201601f19908116603f01168101908382118183101715620002935762000293620001e9565b816040528281528a86848701011115620002ac57600080fd5b600093505b82841015620002d05784840186015181850187015292850192620002b1565b60008684830101528096505050505050509250925092565b600181811c90821680620002fd57607f821691505b6020821081036200031e57634e487b7160e01b600052602260045260246000fd5b50919050565b601f8211156200037257600081815260208120601f850160051c810160208610156200034d5750805b601f850160051c820191505b818110156200036e5782815560010162000359565b5050505b505050565b81516001600160401b03811115620003935762000393620001e9565b620003ab81620003a48454620002e8565b8462000324565b602080601f831160018114620003e35760008415620003ca5750858301515b600019600386901b1c1916600185901b1785556200036e565b600085815260208120601f198616915b828110156200041457888601518255948401946001909101908401620003f3565b5085821015620004335787850151600019600388901b60f8161c191681555b5050505050600190811b01905550565b614ed380620004536000396000f3fe608060405234801561001057600080fd5b506004361061030b5760003560e01c80638bb5b0941161019d578063d5391393116100e9578063e8a12dd7116100a2578063f5b541a61161007c578063f5b541a6146106ac578063f6ac1bc5146106c1578063f7f5ee55146106d4578063fb94bd8a146106e757600080fd5b8063e8a12dd714610666578063e985e9c514610686578063f242432a1461069957600080fd5b8063d5391393146105f0578063d547741f14610605578063d8a3073214610618578063e3e097151461062b578063e58378bb1461063e578063e5af48d81461065357600080fd5b8063a217fddf11610156578063aea1fc4c11610130578063aea1fc4c146105a2578063bde644fb146105c2578063c4bc5da5146105d5578063d1df306c146105dd57600080fd5b8063a217fddf14610574578063a22cb4651461057c578063a3106b951461058f57600080fd5b80638bb5b0941461050e5780638e6c2b1a1461051657806391d148541461051e57806398f7ceab146105315780639a9d50a0146105445780639dbad8a01461054c57600080fd5b806343d7cce61161025c5780635c908b8e116102155780637e8e4889116101ef5780637e8e4889146104d85780637fdc14fb146104e057806385ccaffc146104f3578063892a63ea1461050657600080fd5b80635c908b8e146104a75780635c975abb146104ba5780635fa82826146104c557600080fd5b806343d7cce61461043e5780634ad309be146104515780634e1273f414610459578063529d639c14610479578063562520f71461048c578063572acc2e1461049f57600080fd5b8063248a9ca3116102c95780632f2ff15d116102a35780632f2ff15d146103fd57806335acda7e1461041057806336568abe14610423578063439766ce1461043657600080fd5b8063248a9ca3146103b45780632eb2c2d6146103d75780632f1d5a60146103ea57600080fd5b8062fdd58e1461031057806301ffc9a7146103365780630e89341c146103595780631da7b97914610379578063228624821461038e578063245afb5a146103a1575b600080fd5b61032361031e366004613d69565b6106fa565b6040519081526020015b60405180910390f35b610349610344366004613da9565b610793565b604051901515815260200161032d565b61036c610367366004613dc6565b61079e565b60405161032d9190613e2f565b61038c610387366004613e42565b6107a9565b005b61038c61039c366004613fb5565b610864565b61038c6103af366004614038565b6109cf565b6103236103c2366004613dc6565b60009081526009602052604090206001015490565b61038c6103e5366004614074565b610cc2565b61038c6103f8366004613e42565b610f8d565b61038c61040b36600461411d565b611039565b61038c61041e366004614149565b611060565b61038c61043136600461411d565b611130565b61038c6111aa565b61032361044c366004613d69565b6111cd565b610323600181565b61046c610467366004614202565b6111e8565b60405161032d91906142a0565b61038c6104873660046142b3565b611311565b61032361049a366004613e42565b61146a565b610323611482565b61038c6104b53660046142f6565b6114a6565b600a5460ff16610349565b61038c6104d3366004613e42565b6114ee565b61032361159a565b61038c6104ee366004613dc6565b6115aa565b61046c61050136600461434a565b6115c8565b600f54610323565b61036c6115dd565b61032361166f565b61034961052c36600461411d565b611691565b61034961053f366004613d69565b61169d565b6103236116b2565b61036c604051806040016040528060098152602001687b746f6b656e49647d60b81b81525081565b610323600081565b61038c61058a36600461437d565b6116d4565b61038c61059d366004613e42565b6116de565b6105b56105b03660046143a7565b61178a565b60405161032d91906143db565b61036c6105d0366004613dc6565b611842565b61038c61196a565b61038c6105eb366004613d69565b61198a565b610323600080516020614e7e83398151915281565b61038c61061336600461411d565b6119d4565b61046c610626366004613e42565b6119f6565b6105b5610639366004613e42565b611a09565b610323600080516020614e3e83398151915281565b61034961066136600461443d565b611a1f565b610679610674366004614202565b611b05565b60405161032d9190614479565b6103496106943660046144bf565b611c4f565b61038c6106a73660046144e9565b611c7f565b610323600080516020614e5e83398151915281565b61038c6106cf36600461454d565b611d63565b6103496106e236600461459b565b611fbd565b61038c6106f53660046145ee565b61201d565b60006001600160a01b03831661076a5760405162461bcd60e51b815260206004820152602a60248201527f455243313135353a2061646472657373207a65726f206973206e6f742061207660448201526930b634b21037bbb732b960b11b60648201526084015b60405180910390fd5b506000818152602081815260408083206001600160a01b03861684529091529020545b92915050565b600061078d82612118565b606061078d82611842565b600080516020614e3e8339815191526107c18161213d565b6001600160a01b0382166108485760405162461bcd60e51b815260206004820152604260248201527f58656e6f4e4654436f6e747261637456313a7265766f6b654f70657261746f7260448201527f41646472657373282920696e76616c6964206f70657261746f72206164647265606482015261737360f01b608482015260a401610761565b610860600080516020614e5e83398151915283612147565b5050565b600080516020614e7e83398151915261087c8161213d565b6108846121ae565b60008351116108fd576040805162461bcd60e51b81526020600482015260248101919091527f58656e6f4e4654436f6e747261637456313a6d696e744261746368282920746860448201527f65726520617265206e6f20746f6b656e49447320746f206d696e7420776974686064820152608401610761565b600083516001600160401b0381111561091857610918613e5d565b604051908082528060200260200182016040528015610941578160200160208202803683370190505b50905060005b84518110156109a65761097560008787848151811061096857610968614636565b60200260200101516121f6565b600182828151811061098957610989614636565b60209081029190910101528061099e81614662565b915050610947565b506109b385858386612334565b601180549060006109c383614662565b91905055505050505050565b6000828152600860205260408120546001600160a01b031690506001600160a01b038416610a0f5760405162461bcd60e51b81526004016107619061467b565b336001600160a01b03821614610a375760405162461bcd60e51b8152600401610761906146cf565b6001600160a01b038082166000908152600b602090815260408083209388168352929052908120600019918291905b8154811015610b0c57818181548110610a8157610a81614636565b9060005260206000200154600014158015610ab7575086828281548110610aaa57610aaa614636565b9060005260206000200154145b15610ac457809350610b0c565b818181548110610ad657610ad6614636565b90600052602060002001546000148015610af1575060001983145b15610afa578092505b80610b0481614662565b915050610a66565b506001851515148015610b20575060001983145b15610b9e57600019821015610b535785818381548110610b4257610b42614636565b600091825260209091200155610b69565b8054600181018255600082815260209020018690555b6001600160a01b038085166000908152600b60209081526040808320938b168352929052208154610b9c91908390613cf6565b505b84158015610bad575060001983105b15610c69578054600090610bc39060019061472c565b9050838114610c0e576000828281548110610be057610be0614636565b9060005260206000200154905080838681548110610c0057610c00614636565b600091825260209091200155505b81805480610c1e57610c1e61473f565b6000828152602080822083016000199081018390559092019092556001600160a01b038088168352600b82526040808420918c168452915290208254610c6691908490613cf6565b50505b604080513381526001600160a01b0389166020820152808201889052861515606082015290517fafaad82de250b6363e9fcf34d576439ec5a9207a2518e5ae818f7a9a261635ad9181900360800190a150505050505050565b610cca6121ae565b6001600160a01b038516151580610ce957506001600160a01b03841615155b610d815760405162461bcd60e51b815260206004820152605a60248201527f58656e6f4e4654436f6e747261637456313a7472616e73666572546f6b656e7360448201527f426174636846726f6d282920626f74682066726f6d20616e6420746f2061646460648201527f726573732063616e2774206265206e756c6c2061646472657373000000000000608482015260a401610761565b336001600160a01b0386161480610d9e5750610d9e853385611fbd565b80610dae5750610dae8533611c4f565b610e3f5760405162461bcd60e51b815260206004820152605660248201527f58656e6f4e4654436f6e747261637456313a7361666542617463685472616e7360448201527f66657246726f6d28292073656e64657220646f65736e277420686176652061206064820152756772616e7420666f7220746f6b656e49445461626c6560501b608482015260a401610761565b6000835111610edc5760405162461bcd60e51b815260206004820152605c60248201527f58656e6f4e4654436f6e747261637456313a7472616e73666572546f6b656e7360448201527f426174636846726f6d2829206f6e65206f72206d6f726520746f6b656e49447360648201527f2073686f756c642062652061737369676e6564206174206c6561737400000000608482015260a401610761565b600083516001600160401b03811115610ef757610ef7613e5d565b604051908082528060200260200182016040528015610f20578160200160208202803683370190505b50905060005b8451811015610f7757610f46878787848151811061096857610968614636565b6001828281518110610f5a57610f5a614636565b602090810291909101015280610f6f81614662565b915050610f26565b50610f85868686848661247f565b505050505050565b600080516020614e3e833981519152610fa58161213d565b6001600160a01b0382166110215760405162461bcd60e51b815260206004820152603f60248201527f58656e6f4e4654436f6e747261637456313a7365744f70657261746f7241646460448201527f72657373282920696e76616c6964206f70657261746f722061646472657373006064820152608401610761565b610860600080516020614e5e833981519152836124c4565b600080516020614e3e8339815191526110518161213d565b61105b83836124c4565b505050565b600080516020614e7e8339815191526110788161213d565b6110806121ae565b6110898361254a565b156110fc5760405162461bcd60e51b815260206004820152603a60248201527f58656e6f4e4654436f6e747261637456313a6d696e7453696e676c652829207360448201527f616d6520746f6b656e496420616c7265616479206578697374730000000000006064820152608401610761565b611108600085856121f6565b611115848460018561259e565b6010805490600061112583614662565b919050555050505050565b6001600160a01b03811633146111a05760405162461bcd60e51b815260206004820152602f60248201527f416363657373436f6e74726f6c3a2063616e206f6e6c792072656e6f756e636560448201526e103937b632b9903337b91039b2b63360891b6064820152608401610761565b6108608282612147565b600080516020614e5e8339815191526111c28161213d565b6111ca612678565b50565b60006111d76121ae565b6111e183836126d2565b9392505050565b6060815183511461124d5760405162461bcd60e51b815260206004820152602960248201527f455243313135353a206163636f756e747320616e6420696473206c656e677468604482015268040dad2e6dac2e8c6d60bb1b6064820152608401610761565b600083516001600160401b0381111561126857611268613e5d565b604051908082528060200260200182016040528015611291578160200160208202803683370190505b50905060005b8451811015611309576112dc8582815181106112b5576112b5614636565b60200260200101518583815181106112cf576112cf614636565b60200260200101516106fa565b8282815181106112ee576112ee614636565b602090810291909101015261130281614662565b9050611297565b509392505050565b600080516020614e5e8339815191526113298161213d565b60008251116113aa5760405162461bcd60e51b815260206004820152604160248201527f58656e6f4e4654436f6e747261637456313a6275726e546f6b656e734261746360448201527f68282920746865726520617265206e6f20746f6b656e49447320746f206275726064820152603760f91b608482015260a401610761565b600082516001600160401b038111156113c5576113c5613e5d565b6040519080825280602002602001820160405280156113ee578160200160208202803683370190505b50905060005b83518110156114465761141585600086848151811061096857610968614636565b600182828151811061142957611429614636565b60209081029190910101528061143e81614662565b9150506113f4565b506114528484836127f8565b8251600f546114619190614755565b600f5550505050565b60006114746121ae565b61078d82612982565b919050565b6000600080516020614e5e83398151915261149c8161213d565b60115491505b5090565b60005b82518110156114e8576114d6848483815181106114c8576114c8614636565b6020026020010151846109cf565b806114e081614662565b9150506114a9565b50505050565b600080516020614e3e8339815191526115068161213d565b6001600160a01b0382166115825760405162461bcd60e51b815260206004820152603e60248201527f58656e6f4e4654436f6e747261637456313a7265766f6b654d696e746572416460448201527f6472657373282920696e76616c6964206d696e746572206164647265737300006064820152608401610761565b610860600080516020614e7e83398151915283612147565b60006115a560065490565b905090565b600080516020614e5e8339815191526115c28161213d565b50600e55565b60606115d5848484612a17565b949350505050565b6060600c80546115ec90614768565b80601f016020809104026020016040519081016040528092919081815260200182805461161890614768565b80156116655780601f1061163a57610100808354040283529160200191611665565b820191906000526020600020905b81548152906001019060200180831161164857829003601f168201915b5050505050905090565b6000600080516020614e5e8339815191526116898161213d565b505060105490565b60006111e183836120ed565b6000806116aa84846106fa565b119392505050565b6000600080516020614e5e8339815191526116cc8161213d565b5050600e5490565b6108608282612cad565b600080516020614e3e8339815191526116f68161213d565b6001600160a01b0382166117725760405162461bcd60e51b815260206004820152603b60248201527f58656e6f4e4654436f6e747261637456313a7365744d696e746572416464726560448201527f7373282920696e76616c6964206d696e746572206164647265737300000000006064820152608401610761565b610860600080516020614e7e833981519152836124c4565b6060600082516001600160401b038111156117a7576117a7613e5d565b6040519080825280602002602001820160405280156117da57816020015b60608152602001906001900390816117c55790505b50905060005b835181101561183b5761180b8482815181106117fe576117fe614636565b6020026020010151611842565b82828151811061181d5761181d614636565b6020026020010181905250808061183390614662565b9150506117e0565b5092915050565b606061184d82612cb8565b15156001146118bc5760405162461bcd60e51b815260206004820152603560248201527f58656e6f4e4654436f6e747261637456313a6765744d657461646174615552496044820152740a0a481d1bdad95b9259081b9bdd081b5a5b9d1959605a1b6064820152608401610761565b60006118c783612cf2565b60408051808201825260098152687b746f6b656e49647d60b81b60208201529051637005681f60e11b815291925060009173__$4f6fcd48f2b8336e5e79cd49fefda863e1$__9163e00ad03e9161192591600c9187906004016147a2565b600060405180830381865af4158015611942573d6000803e3d6000fd5b505050506040513d6000823e601f3d908101601f191682016040526115d59190810190614856565b600080516020614e5e8339815191526119828161213d565b6111ca612d84565b600080516020614e5e8339815191526119a28161213d565b6119ae836000846121f6565b6119ba83836001612dbd565b600f80549060006119ca83614662565b9190505550505050565b600080516020614e3e8339815191526119ec8161213d565b61105b8383612147565b6060611a006121ae565b61078d82612ec1565b6060611a136121ae565b61078d6105b083612ec1565b6000818152600860205260408120546001600160a01b03908116908416611a585760405162461bcd60e51b81526004016107619061467b565b806001600160a01b0316856001600160a01b031614611a895760405162461bcd60e51b8152600401610761906146cf565b6001600160a01b038086166000908152600b60209081526040808320938816835292905290812090805b8254811015611afa5785838281548110611acf57611acf614636565b906000526020600020015403611ae85760019150611afa565b80611af281614662565b915050611ab3565b509695505050505050565b60606000825111611b8c5760405162461bcd60e51b8152602060048201526044602482018190527f58656e6f4e4654436f6e747261637456313a6973546f6b656e4f776e65724261908201527f746368282920746865726520617265206e6f20746f6b656e49447320746f20636064820152636865636b60e01b608482015260a401610761565b600082516001600160401b03811115611ba757611ba7613e5d565b604051908082528060200260200182016040528015611bd0578160200160208202803683370190505b50905060005b835181101561130957611c1b858281518110611bf457611bf4614636565b6020026020010151858381518110611c0e57611c0e614636565b602002602001015161169d565b828281518110611c2d57611c2d614636565b9115156020928302919091019091015280611c4781614662565b915050611bd6565b6001600160a01b03808316600090815260016020908152604080832093851683529290529081205460ff166111e1565b611c876121ae565b611c8f6121ae565b336001600160a01b0386161480611cac5750611cac853385611a1f565b80611cbc5750611cbc8533611c4f565b611d435760405162461bcd60e51b815260206004820152604c60248201527f58656e6f4e4654436f6e747261637456313a736166655472616e73666572467260448201527f6f6d28292073656e64657220646f65736e277420686176652061206772616e7460648201526b08199bdc881d1bdad95b925960a21b608482015260a401610761565b611d4e8585856121f6565b611d5c858585600185612ff8565b5050505050565b600080516020614e7e833981519152611d7b8161213d565b611d836121ae565b6000845111611dfa5760405162461bcd60e51b815260206004820152603d60248201527f58656e6f4e4654436f6e747261637456313a6d696e7447726f7570282920746860448201527f65726520617265206e6f206163636f756e7420746f206d696e7420746f0000006064820152608401610761565b6000835111611e73576040805162461bcd60e51b81526020600482015260248101919091527f58656e6f4e4654436f6e747261637456313a6d696e7447726f7570282920746860448201527f65726520617265206e6f20746f6b656e49447320746f206d696e7420776974686064820152608401610761565b8251845114611f105760405162461bcd60e51b815260206004820152605f60248201527f58656e6f4e4654436f6e747261637456313a6d696e7447726f7570282920616360448201527f636f756e745461626c652e6c656e6774682076616c7565206d7573742062652060648201527f73616d6520617320746f6b656e49445461626c652e6c656e677468206f6e6500608482015260a401610761565b60005b8451811015611f9e57611f4d6000868381518110611f3357611f33614636565b602002602001015186848151811061096857610968614636565b611f8c858281518110611f6257611f62614636565b6020026020010151858381518110611f7c57611f7c614636565b602002602001015160018661259e565b80611f9681614662565b915050611f13565b50835160106000828254611fb29190614755565b909155505050505050565b60006001815b835181101561201457611ff08686868481518110611fe357611fe3614636565b6020026020010151611a1f565b15156000036120025760009150612014565b8061200c81614662565b915050611fc3565b50949350505050565b600080516020614e5e8339815191526120358161213d565b60008251116120a55760405162461bcd60e51b815260206004820152603660248201527f58656e6f4e4654436f6e747261637456313a7365744d6574616461746142617360448201527565555249282920696e76616c6964206261736555524960501b6064820152608401610761565b600c6120b18382614913565b507f3f9b8195fa37823d147404360f727020dcb333654cace487620ef9c4683d3543826040516120e19190613e2f565b60405180910390a15050565b60009182526009602090815260408084206001600160a01b0393909316845291905290205460ff1690565b60006001600160e01b03198216637965db0b60e01b148061078d575061078d8261303d565b6111ca813361308d565b6121518282611691565b156108605760008281526009602090815260408083206001600160a01b0385168085529252808320805460ff1916905551339285917ff6391f5c32d9c69d2a47ea670b442974b53935d1edc7fd64eb21e047a839171b9190a45050565b600a5460ff16156121f45760405162461bcd60e51b815260206004820152601060248201526f14185d5cd8589b194e881c185d5cd95960821b6044820152606401610761565b565b600d54811015801561220a5750600e548111155b61227c5760405162461bcd60e51b815260206004820152603860248201527f58656e6f4e4654436f6e747261637456313a5f6265666f7265546f6b656e547260448201527f616e73666572282920696e76616c696420746f6b656e496400000000000000006064820152608401610761565b6001600160a01b0383166122d7576122d281600680546000838152600760205260408120829055600182018355919091527ff652222313e28459528d920b65115c16c04f3efc82aaedc97be59f3f377c0d3f0155565b6122fa565b816001600160a01b0316836001600160a01b0316146122fa576122fa83826130e6565b6001600160a01b0382166123115761105b816132f9565b826001600160a01b0316826001600160a01b03161461105b5761105b82826133a8565b6001600160a01b03841661235a5760405162461bcd60e51b8152600401610761906149d2565b815183511461237b5760405162461bcd60e51b815260040161076190614a13565b3360005b84518110156124175783818151811061239a5761239a614636565b60200260200101516000808784815181106123b7576123b7614636565b602002602001015181526020019081526020016000206000886001600160a01b03166001600160a01b0316815260200190815260200160002060008282546123ff9190614755565b9091555081905061240f81614662565b91505061237f565b50846001600160a01b031660006001600160a01b0316826001600160a01b03167f4a39dc06d4c0dbc64b70af90fd698a233a518aa5d07e595d983b8c0526c8f7fb8787604051612468929190614a5b565b60405180910390a4611d5c81600087878787613429565b6001600160a01b03851633148061249b575061249b8533611c4f565b6124b75760405162461bcd60e51b815260040161076190614a89565b611d5c8585858585613584565b6124ce8282611691565b6108605760008281526009602090815260408083206001600160a01b03851684529091529020805460ff191660011790556125063390565b6001600160a01b0316816001600160a01b0316837f2f8788117e7eff1d82e926ec794901d17c78024a50270940304540a733656f0d60405160405180910390a45050565b6000805b60065481101561259557826006828154811061256c5761256c614636565b906000526020600020015403612583575090919050565b8061258d81614662565b91505061254e565b50600092915050565b6001600160a01b0384166125c45760405162461bcd60e51b8152600401610761906149d2565b3360006125d085613718565b905060006125dd85613718565b90506000868152602081815260408083206001600160a01b038b1684529091528120805487929061260f908490614755565b909155505060408051878152602081018790526001600160a01b03808a1692600092918716917fc3d58168c5ae7397731d063d5bbf3d657854427343f4c083240f7aacaa2d0f62910160405180910390a461266f83600089898989613763565b50505050505050565b6126806121ae565b600a805460ff191660011790557f62e78cea01bee320cd4e420270b5ea74000d11b0c9f74754ebdbfc544b05a2586126b53390565b6040516001600160a01b03909116815260200160405180910390a1565b60006001600160a01b0383166127505760405162461bcd60e51b815260206004820152603760248201527f45524331313535456e756d617261626c653a5f746f6b656e4f664f776e65722860448201527f2920696e76616c6964206f776e657220616464726573730000000000000000006064820152608401610761565b6001600160a01b03831660009081526003602052604090205482106127cf5760405162461bcd60e51b815260206004820152602f60248201527f45524331313535456e756d617261626c653a5f746f6b656e4f664f776e65722860448201526e05240d2dcecc2d8d2c840d2dcc8caf608b1b6064820152608401610761565b506001600160a01b03919091166000908152600460209081526040808320938352929052205490565b6001600160a01b03831661281e5760405162461bcd60e51b815260040161076190614ad7565b805182511461283f5760405162461bcd60e51b815260040161076190614a13565b604080516020810190915260009081905233905b835181101561291557600084828151811061287057612870614636565b60200260200101519050600084838151811061288e5761288e614636565b602090810291909101810151600084815280835260408082206001600160a01b038c1683529093529190912054909150818110156128de5760405162461bcd60e51b815260040161076190614b1a565b6000928352602083815260408085206001600160a01b038b168652909152909220910390558061290d81614662565b915050612853565b5060006001600160a01b0316846001600160a01b0316826001600160a01b03167f4a39dc06d4c0dbc64b70af90fd698a233a518aa5d07e595d983b8c0526c8f7fb8686604051612966929190614a5b565b60405180910390a46040805160208101909152600090526114e8565b60006001600160a01b0382166129fb5760405162461bcd60e51b815260206004820152603860248201527f45524331313535456e756d617261626c653a5f6f776e6572546f6b656e4e756d604482015277282920696e76616c6964206f776e6572206164647265737360401b6064820152608401610761565b506001600160a01b031660009081526003602052604090205490565b60606001600160a01b038416612a955760405162461bcd60e51b815260206004820152603d60248201527f45524331313535456e756d617261626c653a5f7175657279546f6b656e734f6660448201527f4f776e6572282920696e76616c6964206f776e657220616464726573730000006064820152608401610761565b81600003612b175760405162461bcd60e51b815260206004820152604360248201527f45524331313535456e756d617261626c653a5f7175657279546f6b656e734f6660448201527f4f776e6572282920696e76616c696420746f6b656e206e756d20706172616d656064820152623a32b960e91b608482015260a401610761565b6001600160a01b03841660009081526003602052604090205480612b3c856001614755565b1115612bbf5760405162461bcd60e51b815260206004820152604660248201527f45524331313535456e756d617261626c653a5f7175657279546f6b656e734f6660448201527f4f776e65722829206f66667365742b312065786365656473206f776e6572546f6064820152656b656e4e756d60d01b608482015260a401610761565b600081612bcc8587614755565b1115612bf85781612bdd8587614755565b612be7919061472c565b612bf1908561472c565b9050612bfb565b50825b6000816001600160401b03811115612c1557612c15613e5d565b604051908082528060200260200182016040528015612c3e578160200160208202803683370190505b50905060005b82811015611afa576001600160a01b038816600090815260046020526040812090612c6f838a614755565b815260200190815260200160002054828281518110612c9057612c90614636565b602090810291909101015280612ca581614662565b915050612c44565b61086033838361381e565b6000818152600760205260408120546006805484919083908110612cde57612cde614636565b906000526020600020015414915050919050565b60606000612cff836138fe565b60010190506000816001600160401b03811115612d1e57612d1e613e5d565b6040519080825280601f01601f191660200182016040528015612d48576020820181803683370190505b5090508181016020015b600019016f181899199a1a9b1b9c1cb0b131b232b360811b600a86061a8153600a8504945084612d5257509392505050565b612d8c6139d6565b600a805460ff191690557f5db9ee0a495bf2e6ff9c91a7834c1ba4fdd244a5e8aa4e537bd38aeae4b073aa336126b5565b6001600160a01b038316612de35760405162461bcd60e51b815260040161076190614ad7565b336000612def84613718565b90506000612dfc84613718565b60408051602080820183526000918290528882528181528282206001600160a01b038b1683529052205490915084811015612e495760405162461bcd60e51b815260040161076190614b1a565b6000868152602081815260408083206001600160a01b038b81168086529184528285208a8703905582518b81529384018a90529092908816917fc3d58168c5ae7397731d063d5bbf3d657854427343f4c083240f7aacaa2d0f62910160405180910390a460408051602081019091526000905261266f565b60606001600160a01b038216612f3a5760405162461bcd60e51b815260206004820152603860248201527f45524331313535456e756d617261626c653a5f746f6b656e734f664f776e6572604482015277282920696e76616c6964206f776e6572206164647265737360401b6064820152608401610761565b6001600160a01b03821660009081526003602052604081205490816001600160401b03811115612f6c57612f6c613e5d565b604051908082528060200260200182016040528015612f95578160200160208202803683370190505b50905060005b82811015611309576001600160a01b03851660009081526004602090815260408083208484529091529020548251839083908110612fdb57612fdb614636565b602090810291909101015280612ff081614662565b915050612f9b565b6001600160a01b03851633148061301457506130148533611c4f565b6130305760405162461bcd60e51b815260040161076190614a89565b611d5c8585858585613a1f565b60006001600160e01b03198216636cdb3d1360e11b148061306e57506001600160e01b031982166303a24d0760e21b145b8061078d57506301ffc9a760e01b6001600160e01b031983161461078d565b6130978282611691565b610860576130a481613b49565b6130af836020613b5b565b6040516020016130c0929190614b5e565b60408051601f198184030181529082905262461bcd60e51b825261076191600401613e2f565b6001600160a01b0382166000908152600360205260409020548061318f5760405162461bcd60e51b815260206004820152605460248201527f45524331313535456e756d617261626c653a5f72656d6f7665546f6b656e467260448201527f6f6d4f776e6572456e756d65726174696f6e28292073656e646572277320746f6064820152736b656e2073746f7261676520697320656d70747960601b608482015260a401610761565b600061319b84846106fa565b116132215760405162461bcd60e51b815260206004820152604a60248201527f45524331313535456e756d617261626c653a5f72656d6f7665546f6b656e467260448201527f6f6d4f776e6572456e756d65726174696f6e28292073656e646572277320626160648201526906c616e636520697320360b41b608482015260a401610761565b600061322e60018361472c565b600084815260056020526040902054909150808214613281576001600160a01b03851660009081526004602090815260408083208584528252808320548484528184208190558352600590915290208190555b60008481526005602090815260408083208390556001600160a01b03881683526004825280832085845282528083208390558683526008909152902080546001600160a01b03191690556132d660018461472c565b6001600160a01b0390951660009081526003602052604090209490945550505050565b60065460009061330b9060019061472c565b6000838152600760205260408120546006805493945090928490811061333357613333614636565b90600052602060002001549050806006838154811061335457613354614636565b600091825260208083209091019290925582815260079091526040808220849055858252812055600680548061338c5761338c61473f565b6001900381819060005260206000200160009055905550505050565b6001600160a01b03821660008181526003602090815260408083205460048352818420818552835281842086905585845260058352818420819055600890925290912080546001600160a01b031916909217909155613408816001614755565b6001600160a01b039093166000908152600360205260409020929092555050565b6001600160a01b0384163b15610f855760405163bc197c8160e01b81526001600160a01b0385169063bc197c819061346d9089908990889088908890600401614bd3565b6020604051808303816000875af19250505080156134a8575060408051601f3d908101601f191682019092526134a591810190614c31565b60015b613554576134b4614c4e565b806308c379a0036134ed57506134c8614c6a565b806134d357506134ef565b8060405162461bcd60e51b81526004016107619190613e2f565b505b60405162461bcd60e51b815260206004820152603460248201527f455243313135353a207472616e7366657220746f206e6f6e2d455243313135356044820152732932b1b2b4bb32b91034b6b83632b6b2b73a32b960611b6064820152608401610761565b6001600160e01b0319811663bc197c8160e01b1461266f5760405162461bcd60e51b815260040161076190614cf3565b81518351146135a55760405162461bcd60e51b815260040161076190614a13565b6001600160a01b0384166135cb5760405162461bcd60e51b815260040161076190614d3b565b3360005b84518110156136b25760008582815181106135ec576135ec614636565b60200260200101519050600085838151811061360a5761360a614636565b602090810291909101810151600084815280835260408082206001600160a01b038e16835290935291909120549091508181101561365a5760405162461bcd60e51b815260040161076190614d80565b6000838152602081815260408083206001600160a01b038e8116855292528083208585039055908b16825281208054849290613697908490614755565b92505081905550505050806136ab90614662565b90506135cf565b50846001600160a01b0316866001600160a01b0316826001600160a01b03167f4a39dc06d4c0dbc64b70af90fd698a233a518aa5d07e595d983b8c0526c8f7fb8787604051613702929190614a5b565b60405180910390a4610f85818787878787613429565b6040805160018082528183019092526060916000919060208083019080368337019050509050828160008151811061375257613752614636565b602090810291909101015292915050565b6001600160a01b0384163b15610f855760405163f23a6e6160e01b81526001600160a01b0385169063f23a6e61906137a79089908990889088908890600401614dca565b6020604051808303816000875af19250505080156137e2575060408051601f3d908101601f191682019092526137df91810190614c31565b60015b6137ee576134b4614c4e565b6001600160e01b0319811663f23a6e6160e01b1461266f5760405162461bcd60e51b815260040161076190614cf3565b816001600160a01b0316836001600160a01b0316036138915760405162461bcd60e51b815260206004820152602960248201527f455243313135353a2073657474696e6720617070726f76616c20737461747573604482015268103337b91039b2b63360b91b6064820152608401610761565b6001600160a01b03838116600081815260016020908152604080832094871680845294825291829020805460ff191686151590811790915591519182527f17307eab39ab6107e8899845ad3d59bd9653f200f220920489ca2b5937696c31910160405180910390a3505050565b60008072184f03e93ff9f4daa797ed6e38ed64bf6a1f0160401b831061393d5772184f03e93ff9f4daa797ed6e38ed64bf6a1f0160401b830492506040015b6d04ee2d6d415b85acef81000000008310613969576d04ee2d6d415b85acef8100000000830492506020015b662386f26fc10000831061398757662386f26fc10000830492506010015b6305f5e100831061399f576305f5e100830492506008015b61271083106139b357612710830492506004015b606483106139c5576064830492506002015b600a831061078d5760010192915050565b600a5460ff166121f45760405162461bcd60e51b815260206004820152601460248201527314185d5cd8589b194e881b9bdd081c185d5cd95960621b6044820152606401610761565b6001600160a01b038416613a455760405162461bcd60e51b815260040161076190614d3b565b336000613a5185613718565b90506000613a5e85613718565b90506000868152602081815260408083206001600160a01b038c16845290915290205485811015613aa15760405162461bcd60e51b815260040161076190614d80565b6000878152602081815260408083206001600160a01b038d8116855292528083208985039055908a16825281208054889290613ade908490614755565b909155505060408051888152602081018890526001600160a01b03808b16928c821692918816917fc3d58168c5ae7397731d063d5bbf3d657854427343f4c083240f7aacaa2d0f62910160405180910390a4613b3e848a8a8a8a8a613763565b505050505050505050565b606061078d6001600160a01b03831660145b60606000613b6a836002614e0f565b613b75906002614755565b6001600160401b03811115613b8c57613b8c613e5d565b6040519080825280601f01601f191660200182016040528015613bb6576020820181803683370190505b509050600360fc1b81600081518110613bd157613bd1614636565b60200101906001600160f81b031916908160001a905350600f60fb1b81600181518110613c0057613c00614636565b60200101906001600160f81b031916908160001a9053506000613c24846002614e0f565b613c2f906001614755565b90505b6001811115613ca7576f181899199a1a9b1b9c1cb0b131b232b360811b85600f1660108110613c6357613c63614636565b1a60f81b828281518110613c7957613c79614636565b60200101906001600160f81b031916908160001a90535060049490941c93613ca081614e26565b9050613c32565b5083156111e15760405162461bcd60e51b815260206004820181905260248201527f537472696e67733a20686578206c656e67746820696e73756666696369656e746044820152606401610761565b828054828255906000526020600020908101928215613d365760005260206000209182015b82811115613d36578254825591600101919060010190613d1b565b506114a29291505b808211156114a25760008155600101613d3e565b80356001600160a01b038116811461147d57600080fd5b60008060408385031215613d7c57600080fd5b613d8583613d52565b946020939093013593505050565b6001600160e01b0319811681146111ca57600080fd5b600060208284031215613dbb57600080fd5b81356111e181613d93565b600060208284031215613dd857600080fd5b5035919050565b60005b83811015613dfa578181015183820152602001613de2565b50506000910152565b60008151808452613e1b816020860160208601613ddf565b601f01601f19169290920160200192915050565b6020815260006111e16020830184613e03565b600060208284031215613e5457600080fd5b6111e182613d52565b634e487b7160e01b600052604160045260246000fd5b601f8201601f191681016001600160401b0381118282101715613e9857613e98613e5d565b6040525050565b60006001600160401b03821115613eb857613eb8613e5d565b5060051b60200190565b600082601f830112613ed357600080fd5b81356020613ee082613e9f565b604051613eed8282613e73565b83815260059390931b8501820192828101915086841115613f0d57600080fd5b8286015b84811015611afa5780358352918301918301613f11565b60006001600160401b03821115613f4157613f41613e5d565b50601f01601f191660200190565b6000613f5a83613f28565b604051613f678282613e73565b809250848152858585011115613f7c57600080fd5b8484602083013760006020868301015250509392505050565b600082601f830112613fa657600080fd5b6111e183833560208501613f4f565b600080600060608486031215613fca57600080fd5b613fd384613d52565b925060208401356001600160401b0380821115613fef57600080fd5b613ffb87838801613ec2565b9350604086013591508082111561401157600080fd5b5061401e86828701613f95565b9150509250925092565b8035801515811461147d57600080fd5b60008060006060848603121561404d57600080fd5b61405684613d52565b92506020840135915061406b60408501614028565b90509250925092565b600080600080600060a0868803121561408c57600080fd5b61409586613d52565b94506140a360208701613d52565b935060408601356001600160401b03808211156140bf57600080fd5b6140cb89838a01613ec2565b945060608801359150808211156140e157600080fd5b6140ed89838a01613ec2565b9350608088013591508082111561410357600080fd5b5061411088828901613f95565b9150509295509295909350565b6000806040838503121561413057600080fd5b8235915061414060208401613d52565b90509250929050565b60008060006060848603121561415e57600080fd5b61416784613d52565b92506020840135915060408401356001600160401b0381111561418957600080fd5b61401e86828701613f95565b600082601f8301126141a657600080fd5b813560206141b382613e9f565b6040516141c08282613e73565b83815260059390931b85018201928281019150868411156141e057600080fd5b8286015b84811015611afa576141f581613d52565b83529183019183016141e4565b6000806040838503121561421557600080fd5b82356001600160401b038082111561422c57600080fd5b61423886838701614195565b9350602085013591508082111561424e57600080fd5b5061425b85828601613ec2565b9150509250929050565b600081518084526020808501945080840160005b8381101561429557815187529582019590820190600101614279565b509495945050505050565b6020815260006111e16020830184614265565b600080604083850312156142c657600080fd5b6142cf83613d52565b915060208301356001600160401b038111156142ea57600080fd5b61425b85828601613ec2565b60008060006060848603121561430b57600080fd5b61431484613d52565b925060208401356001600160401b0381111561432f57600080fd5b61433b86828701613ec2565b92505061406b60408501614028565b60008060006060848603121561435f57600080fd5b61436884613d52565b95602085013595506040909401359392505050565b6000806040838503121561439057600080fd5b61439983613d52565b915061414060208401614028565b6000602082840312156143b957600080fd5b81356001600160401b038111156143cf57600080fd5b6115d584828501613ec2565b6000602080830181845280855180835260408601915060408160051b870101925083870160005b8281101561443057603f1988860301845261441e858351613e03565b94509285019290850190600101614402565b5092979650505050505050565b60008060006060848603121561445257600080fd5b61445b84613d52565b925061446960208501613d52565b9150604084013590509250925092565b6020808252825182820181905260009190848201906040850190845b818110156144b3578351151583529284019291840191600101614495565b50909695505050505050565b600080604083850312156144d257600080fd5b6144db83613d52565b915061414060208401613d52565b600080600080600060a0868803121561450157600080fd5b61450a86613d52565b945061451860208701613d52565b9350604086013592506060860135915060808601356001600160401b0381111561454157600080fd5b61411088828901613f95565b60008060006060848603121561456257600080fd5b83356001600160401b038082111561457957600080fd5b61458587838801614195565b94506020860135915080821115613fef57600080fd5b6000806000606084860312156145b057600080fd5b6145b984613d52565b92506145c760208501613d52565b915060408401356001600160401b038111156145e257600080fd5b61401e86828701613ec2565b60006020828403121561460057600080fd5b81356001600160401b0381111561461657600080fd5b8201601f8101841361462757600080fd5b6115d584823560208401613f4f565b634e487b7160e01b600052603260045260246000fd5b634e487b7160e01b600052601160045260246000fd5b6000600182016146745761467461464c565b5060010190565b60208082526034908201527f58656e6f4e4654436f6e747261637456313a617070726f7665282920696e76616040820152736c6964206f70657261746f72206164647265737360601b606082015260800190565b60208082526039908201527f58656e6f4e4654436f6e747261637456313a617070726f766528292073656e6460408201527f65722069736e2774206f776e6572206f6620746f6b656e496400000000000000606082015260800190565b8181038181111561078d5761078d61464c565b634e487b7160e01b600052603160045260246000fd5b8082018082111561078d5761078d61464c565b600181811c9082168061477c57607f821691505b60208210810361479c57634e487b7160e01b600052602260045260246000fd5b50919050565b6060815260008085546147b481614768565b80606086015260806001808416600081146147d657600181146147f057614821565b60ff1985168884015283151560051b880183019550614821565b8a60005260208060002060005b868110156148185781548b82018701529084019082016147fd565b8a018501975050505b505050505082810360208401526148388186613e03565b9050828103604084015261484c8185613e03565b9695505050505050565b60006020828403121561486857600080fd5b81516001600160401b0381111561487e57600080fd5b8201601f8101841361488f57600080fd5b805161489a81613f28565b6040516148a78282613e73565b8281528660208486010111156148bc57600080fd5b61484c836020830160208701613ddf565b601f82111561105b57600081815260208120601f850160051c810160208610156148f45750805b601f850160051c820191505b81811015610f8557828155600101614900565b81516001600160401b0381111561492c5761492c613e5d565b6149408161493a8454614768565b846148cd565b602080601f831160018114614975576000841561495d5750858301515b600019600386901b1c1916600185901b178555610f85565b600085815260208120601f198616915b828110156149a457888601518255948401946001909101908401614985565b50858210156149c25787850151600019600388901b60f8161c191681555b5050505050600190811b01905550565b60208082526021908201527f455243313135353a206d696e7420746f20746865207a65726f206164647265736040820152607360f81b606082015260800190565b60208082526028908201527f455243313135353a2069647320616e6420616d6f756e7473206c656e677468206040820152670dad2e6dac2e8c6d60c31b606082015260800190565b604081526000614a6e6040830185614265565b8281036020840152614a808185614265565b95945050505050565b6020808252602e908201527f455243313135353a2063616c6c6572206973206e6f7420746f6b656e206f776e60408201526d195c881bdc88185c1c1c9bdd995960921b606082015260800190565b60208082526023908201527f455243313135353a206275726e2066726f6d20746865207a65726f206164647260408201526265737360e81b606082015260800190565b60208082526024908201527f455243313135353a206275726e20616d6f756e7420657863656564732062616c604082015263616e636560e01b606082015260800190565b7f416363657373436f6e74726f6c3a206163636f756e7420000000000000000000815260008351614b96816017850160208801613ddf565b7001034b99036b4b9b9b4b733903937b6329607d1b6017918401918201528351614bc7816028840160208801613ddf565b01602801949350505050565b6001600160a01b0386811682528516602082015260a060408201819052600090614bff90830186614265565b8281036060840152614c118186614265565b90508281036080840152614c258185613e03565b98975050505050505050565b600060208284031215614c4357600080fd5b81516111e181613d93565b600060033d1115614c675760046000803e5060005160e01c5b90565b600060443d1015614c785790565b6040516003193d81016004833e81513d6001600160401b038160248401118184111715614ca757505050505090565b8285019150815181811115614cbf5750505050505090565b843d8701016020828501011115614cd95750505050505090565b614ce860208286010187613e73565b509095945050505050565b60208082526028908201527f455243313135353a204552433131353552656365697665722072656a656374656040820152676420746f6b656e7360c01b606082015260800190565b60208082526025908201527f455243313135353a207472616e7366657220746f20746865207a65726f206164604082015264647265737360d81b606082015260800190565b6020808252602a908201527f455243313135353a20696e73756666696369656e742062616c616e636520666f60408201526939103a3930b739b332b960b11b606082015260800190565b6001600160a01b03868116825285166020820152604081018490526060810183905260a060808201819052600090614e0490830184613e03565b979650505050505050565b808202811582820484141761078d5761078d61464c565b600081614e3557614e3561464c565b50600019019056feb19546dff01e856fb3f010c267a7b1c60363cf8a4664e21cc89c26224620214e97667070c54ef182b0f5858b034beac1b6f3089aa2d3188bb1e8929f4fa9b9299f2df0fed2c77648de5860a4cc508cd0818c85b8b8a1ab4ceeef8d981c8956a6a2646970667358221220d104c546b486a8a42944db1c700e5d62936feed1c6eb513c6eeb8dd3c7c3e1b264736f6c63430008110033",
  "linkReferences": {
    "contracts/XenoNFTContractV1.sol": {
      "StringModifier": [
        {
          "length": 20,
          "start": 7501
        }
      ]
    }
  },
  "deployedLinkReferences": {
    "contracts/XenoNFTContractV1.sol": {
      "StringModifier": [
        {
          "length": 20,
          "start": 6394
        }
      ]
    }
  }
}